:100000000C9434000C9451000C9451000C94510049
:100010000C9451000C9451000C9451000C9451001C
:100020000C9451000C9451000C9451000C9451000C
:100030000C9451000C9451000C9451000C945100FC
:100040000C9451000C9451000C9451000C945100EC
:100050000C9451000C9451000C9451000C945100DC
:100060000C9451000C94510011241FBECFEFD8E026
:10007000DEBFCDBF11E0A0E0B1E0E8E4FDE002C0EA
:1000800005900D92AE3FB107D9F722E0AEEFB1E097
:1000900001C01D92A730B207E1F70E94FC020C9448
:1000A000A2060C9400001092B9008CE08093B80076
:1000B00084E08093BC00089584EA8093BC00809122
:1000C000BC0087FFFCCF089584E98093BC000895AD
:1000D0008093BB0084E88093BC008091BC0087FFC4
:1000E000FCCF0895CF93C82F0E945C008EE40E943D
:1000F00068008C2F84600E94680000008C2F8B7F2A
:100100000E94680080E18A95F1F700C084E980933D
:10011000BC00CF910895CF93DF93C82FD62FD8601E
:10012000807F8D2B0E94720020E1C29FC0011124AC
:100130008D2BDF91CF910C94720060E00C948B00BA
:10014000CF93DF93EC018991882321F061E00E9435
:100150008B00F9CFDF91CF91089581E00E949D003F
:1001600083EF91E00197F1F700C0000008950F932D
:100170001F93CF93DF9300D000D0CDB7DEB70091AF
:1001800008011091090120910A0130910B010983A6
:100190001A832B833C83FE01E60FF11D9181890FA9
:1001A00080680F900F900F900F90DF91CF911F916B
:1001B0000F910C949D0083ED90E30197F1F700C03F
:1001C000000082E00E949D0088E20E949D008CE079
:1001D0000E949D0086E00E949D000C94AD0086B1B7
:1001E00080958170089586B18695817091E0892708
:1001F000089583B183FB882780F991E089270895CA
:100200000E94AD0060E080E00E94B7008CE091E0C9
:100210000E94A00061E080E00E94B70089E191E0C7
:100220000C94A0000E94AD0060E080E00E94B70046
:1002300088E291E00E94A00061E080E00E94B700A7
:1002400083E391E00C94A0000E94AD0060E080E0A8
:100250000E94B70080E491E00E94A00061E080E08D
:100260000E94B7008BE491E00C94A0000E94AD00C6
:1002700060E080E00E94B70089E591E00E94A00064
:1002800061E080E00E94B70087E691E00E94A00054
:100290002FEF84E39CE0215080409040E1F700C0C4
:1002A00000000895EF92FF920F931F93CF93DF9377
:1002B000CDB7DEB760970FB6F894DEBF0FBECDBFE7
:1002C0007C01162F0E94AD0060E080E00E94B70024
:1002D000C7010E94A00061E080E00E94B7001F9269
:1002E0001F9384E791E09F938F931F9280E18F93F8
:1002F0008E010F5F1F4F1F930F930E94AA03C80127
:100300000E94A0000FB6F894DEBF0FBECDBF60966E
:100310000FB6F894DEBF0FBECDBFDF91CF911F9116
:100320000F91FF90EF900895CF93DF93EC010E941F
:10033000AD0060E080E00E94B700CE01DF91CF9178
:100340000C94A0000E94AD0060E080E00E94B70025
:1003500089E791E00E94A00061E080E00E94B70080
:1003600087E891E00C94A0000E94AD0060E080E07E
:100370000E94B70082E991E00E94A00061E080E065
:100380000E94B70088E991E00E94A0002FEF84E36B
:100390009CE0215080409040E1F700C000000895AB
:1003A00083B1827090910602891751F01A9B04C0A4
:1003B0008093060281E00895809306028FEF0895EE
:1003C00080E008958BB18F608BB908953898409A7A
:1003D0003998419A21982298239885B18E6085B9E1
:1003E0008AB18F608AB90C94E2018C3391F038F4B1
:1003F000843161F0883299F48EE090E1089580357F
:1004000059F0843661F48EEA9FE1089584E898E01B
:10041000089582E696E108958AE39BE1089580E0DD
:1004200090E00895CF93C82F862F0E94F5014BB11D
:1004300021E030E001C0220FCA95EAF7522F509513
:1004400045234BB9009741F0E9EFF0E03197F1F720
:1004500000C000000197F6CF8BB1282B2BB9CF91AC
:1004600008950F931F93CF93909101028091020200
:10047000890F90910302890F90910402890F8536AC
:10048000A0F00E943601109205021092000260E076
:1004900080910001909101010E94520181E08093BE
:1004A000FF01CF911F910F9108950E94A20101E0D9
:1004B00012E0C0E0F80161918F018C2F0E941202BE
:1004C000CF5FC430B9F70E94B401109205021092B8
:1004D0000402109203021092020210920102CF91C4
:1004E0001F910F910C940001CF930E94AD0060E02A
:1004F00080E00E94B70088E291E00E94A00061E0E5
:1005000080E00E94B70083EA91E00E94A0002FEFF4
:1005100084E39CE0215080409040E1F700C000005F
:100520000E94AD0060E080E00E94B70082EB91E0A5
:100530000E94A00061E080E00E94B7008EEB91E095
:100540000E94A0002FEF84E39CE021508040904067
:10055000E1F700C00000C0E0EC2FF0E0EE0FFF1F5D
:10056000E050FF4F808191810E9494010E94D00150
:1005700018162CF4CF5FC43049F4C0E007C08823BC
:1005800059F0CC2311F0C15001C0C3E08FE493ECCB
:100590000197F1F700C000000E94F900882329F1BB
:1005A00083ED90E30197F1F700C000000E94F9008D
:1005B0008823D9F0EC2FF0E0EF5FFD4F84E68083D5
:1005C00064E68C2F0E9412020E94A2010E94B401D4
:1005D000109205021092040210920302109202027D
:1005E00010920102CF910C94000183ED90E30197EA
:1005F000F1F700C00000B0CF0E94E6010E94DB00CE
:10060000C1E00E9400010E94EF00811109C00E9418
:10061000F3008823C1F3C093FE010E947402F3CF5C
:10062000C093FE010E9412012FEF84E39CE0215051
:1006300080409040E1F700C000000E9424012FEFAD
:1006400084E39CE0215080409040E1F700C000002E
:100650000E94AD0060E080E00E94B70089EC91E06C
:100660000E94A00061E080E00E94B7008AED91E066
:100670000E94A0002FEF84E39CE021508040904036
:10068000E1F700C00000E0910502F0E0EE0FFF1F6F
:10069000E050FF4F60910002808191810E945201E1
:1006A000C093FF018091FF01882309F44CC00E9490
:1006B000D001181634F4609100026436B0F46C5E18
:1006C00007C0882391F060910002662371F06451A5
:1006D00060930002E0910502F0E0EE0FFF1FE05092
:1006E000FF4F808191810E9452010E94F90088236E
:1006F00051F183ED90E30197F1F700C000000E94F3
:10070000F900882301F1E0910502AE2FB0E0AF5F60
:10071000BD4F809100028C93EF5FE0930502E430BF
:1007200068F410920002F0E0EE0FFF1FE050FF4F60
:1007300060E0808191810E94520105C01092FF010A
:100740000E9431025ECF83ED90E30197F1F700C084
:100750000000A8CFAEE0B0E0E0EBF3E00C94790647
:100760000D891E898F89988D26E02C831A83098331
:1007700097FF02C080E090E801979E838D83AE01D1
:10078000455E5F4F698D7A8DCE0101960E94DA0336
:100790004D815E8157FD0AC02F813885421753076E
:1007A0000CF49A01F801E20FF31F10822E96E4E098
:1007B0000C949506ABE0B0E0E0EEF3E00C946B0631
:1007C0006C017B018A01FC0117821682838181FF03
:1007D000CCC1CE0101963C01F6019381F70193FD56
:1007E000859193FF81917F01882309F4BAC18532F5
:1007F00039F493FD859193FF81917F01853229F42E
:10080000B60190E00E94D105E7CF912C212C312C2C
:10081000FFE1F315D8F08B3279F038F4803279F0BB
:100820008332A1F4232D20611DC08D3261F080330D
:1008300069F4232D216016C0832D8260382EE32DAC
:10084000E4603E2E2AC0F32DF8601DC037FC2DC099
:1008500020ED280F2A3040F08E32B9F436FC81C1E9
:10086000232D2064322E19C036FE06C08AE0989EE1
:10087000200D1124922E11C0EAE02E9E200D11248D
:10088000222EF32DF0623F2E08C08C3621F4832DEA
:100890008068382E02C0883641F4F70193FD8591B7
:1008A00093FF81917F018111B3CF982F9F7D955444
:1008B000933028F40C5F1F4F9FE399830DC083365C
:1008C00031F0833771F0833509F059C021C0F80148
:1008D000808189830E5F1F4F88248394912C53015C
:1008E00013C02801F2E04F0E511CF801A080B18026
:1008F00036FE03C0692D70E002C06FEF7FEFC501C7
:100900000E94C6054C018201F32DFF773F2E16C0D1
:10091000280122E0420E511CF801A080B18036FE71
:1009200003C0692D70E002C06FEF7FEFC5010E9428
:10093000BB054C01F32DF0683F2E820133FC1BC038
:10094000822D90E088169906B0F4B60180E290E01E
:100950000E94D1052A94F4CFF50137FC859137FE2A
:1009600081915F01B60190E00E94D10521102A9487
:1009700021E0821A91088114910471F7E8C084364D
:1009800011F0893641F5F80137FE07C060817181A9
:10099000828193810C5F1F4F08C060817181072E97
:1009A000000C880B990B0E5F1F4FF32DFF763F2E27
:1009B00097FF09C090958095709561957F4F8F4FF7
:1009C0009F4FF0683F2E2AE030E0A3010E940D0601
:1009D000882E861845C0853731F4232D2F7EB22E00
:1009E0002AE030E025C0932D997FB92E8F36C1F0D3
:1009F00018F4883579F0B5C0803719F0883721F0C0
:100A0000B0C0E92FE061BE2EB4FE0DC0FB2DF46036
:100A1000BF2E09C034FE0AC0292F2660B22E06C0A0
:100A200028E030E005C020E130E002C020E132E003
:100A3000F801B7FE07C060817181828193810C5FEC
:100A40001F4F06C06081718180E090E00E5F1F4FF4
:100A5000A3010E940D06882E8618FB2DFF773F2EDE
:100A600036FE0DC0232D2E7FA22E891458F434FE9D
:100A70000BC032FC09C0832D8E7EA82E05C0B82C79
:100A8000A32C03C0B82C01C0B92CA4FE0FC0FE01DA
:100A9000E80DF11D8081803321F49A2D997EA92ED5
:100AA00009C0A2FE06C0B394B39404C08A2D867810
:100AB00009F0B394A3FC11C0A0FE06C0B21488F4E0
:100AC000280C922C9B180EC0B21460F4B60180E280
:100AD00090E00E94D105B394F7CFB21418F42B180C
:100AE00002C0982C212CA4FE10C0B60180E390E037
:100AF0000E94D105A2FE17C0A1FC03C088E790E0C8
:100B000002C088E590E0B6010CC08A2D867859F0C5
:100B1000A1FE02C08BE201C080E2A7FC8DE2B6011B
:100B200090E00E94D105891438F4B60180E390E08A
:100B30000E94D1059A94F7CF8A94F301E80DF11D34
:100B40008081B60190E00E94D1058110F5CF22206E
:100B500009F442CEB60180E290E00E94D1052A94C9
:100B6000F6CFF6018681978102C08FEF9FEF2B961B
:100B7000E2E10C948706FC01059061507040011081
:100B8000D8F7809590958E0F9F1F0895FC016150B6
:100B9000704001900110D8F7809590958E0F9F1F9F
:100BA00008950F931F93CF93DF93FB01238121FDC2
:100BB00003C08FEF9FEF2CC022FF16C046815781E4
:100BC000248135814217530744F4A081B1819D01EE
:100BD0002F5F3F4F318320838C93268137812F5F96
:100BE0003F4F3783268314C08B01EC01FB01008447
:100BF000F185E02D0995892BE1F6D80116968D91A6
:100C00009C911797019617969C938E931697CE01F9
:100C1000DF91CF911F910F910895FA01AA272830F3
:100C200051F1203181F1E8946F936E7F6E5F7F4FB9
:100C30008F4F9F4FAF4FB1E03ED0B4E03CD0670F35
:100C4000781F891F9A1FA11D680F791F8A1F911D88
:100C5000A11D6A0F711D811D911DA11D20D009F4D8
:100C600068943F912AE0269F11243019305D31931A
:100C7000DEF6CF010895462F4770405D4193B3E003
:100C80000FD0C9F7F6CF462F4F70405D4A3318F0AA
:100C9000495D31FD4052419302D0A9F7EACFB4E05B
:100CA000A6959795879577956795BA95C9F7009713
:100CB0006105710508959B01AC010A2E06945795B4
:100CC000479537952795BA95C9F7620F731F841F0B
:100CD000951FA01D08952F923F924F925F926F92A1
:100CE0007F928F929F92AF92BF92CF92DF92EF92BC
:100CF000FF920F931F93CF93DF93CDB7DEB7CA1B3D
:100D0000DB0B0FB6F894DEBF0FBECDBF09942A8867
:100D1000398848885F846E847D848C849B84AA840F
:100D2000B984C884DF80EE80FD800C811B81AA819C
:100D3000B981CE0FD11D0FB6F894DEBF0FBECDBF67
:080D4000ED010895F894FFCFC6
:100D4800E601F001EA01F60100401454312E204179
:100D580075746F204D6F646500322E204D616E757D
:100D6800616C204D6F64650050726F6365737369C1
:100D78006E67004175746F204D6F64652E2E2E00CE
:100D880053656C65637420746865005065726365AB
:100D98006E74616765732E2E0045786365656465BA
:100DA8006420313030250053656C656374206167B9
:100DB80061696E002564252500596F7572206F7270
:100DC800646572206973006F6E20746865207761AE
:100DD8007900456E6A6F7900596F7572206472697F
:100DE8006E6B004D616E75616C204D6F64652E2EC3
:100DF8002E0053656C656374206F6E6C79004F6EBE
:100E0800652046727569742100546F74616C207393
:100E1800686F756C64206E6F7400657863656564CF
:100E280020313030250050494E454150504C450046
:0E0E38004D414E474F004F52414E474500007E
:00000001FF
