:100000000C9434000C9451000C9451000C94510049
:100010000C9451000C9451000C9451000C9451001C
:100020000C9451000C9451000C9451000C9451000C
:100030000C9451000C9451000C9451000C945100FC
:100040000C9451000C9451000C9451000C945100EC
:100050000C9451000C9451000C9451000C945100DC
:100060000C9451000C94510011241FBECFEFD8E026
:10007000DEBFCDBF11E0A0E0B1E0E2EDFAE002C0EA
:1000800005900D92A83AB107D9F721E0A8EAB1E0AE
:1000900001C01D92A13BB207E1F70E94CB010C9475
:1000A00067050C9400001092B9008CE08093B800B2
:1000B00084E08093BC00089584EA8093BC00809122
:1000C000BC0087FFFCCF089584E98093BC000895AD
:1000D0008093BB0084E88093BC008091BC0087FFC4
:1000E000FCCF0895CF93C82F0E945C008EE40E943D
:1000F00068008C2F84600E94680000008C2F8B7F2A
:100100000E94680080E18A95F1F700C084E980933D
:10011000BC00CF910895CF93DF93C82FD62FD8601E
:10012000807F8D2B0E94720020E1C29FC0011124AC
:100130008D2BDF91CF910C94720060E00C948B00BA
:10014000CF93DF93EC018991882321F061E00E9435
:100150008B00F9CFDF91CF91089581E00E949D003F
:1001600083EF91E00197F1F700C0000008950F932D
:100170001F93CF93DF9300D000D0CDB7DEB70091AF
:1001800008011091090120910A0130910B010983A6
:100190001A832B833C83FE01E60FF11D9181890FA9
:1001A00080680F900F900F900F90DF91CF911F916B
:1001B0000F910C949D0083ED90E30197F1F700C03F
:1001C000000082E00E949D0088E20E949D008CE079
:1001D0000E949D0086E00E949D000C94AD0038981E
:1001E000409A21982298239885B18E6085B9089508
:1001F00086B180958170089583B183FB882780F94B
:1002000091E0892708950E94AD0060E084E00E949B
:10021000B7008CE091E00C94A0000E94AD0060E07B
:1002200080E00E94B70084E191E00C94A0000E945D
:10023000AD0060E080E00E94B70081E291E00E94A2
:10024000A00061E080E00E94B7008CE291E00C9495
:10025000A0000E94AD0060E080E00E94B7008AE349
:1002600091E00E94A00061E080E00E94B70088E475
:1002700091E00E94A0002FEF84E39CE02150804099
:100280009040E1F700C000000895EF92FF920F93B5
:100290001F93CF93DF93CDB7DEB760970FB6F89477
:1002A000DEBF0FBECDBF7C01162F0E94AD0060E007
:1002B00080E00E94B700C7010E94A00061E080E0DA
:1002C0000E94B7001F921F9385E591E09F938F9343
:1002D0001F9280E18F938E010F5F1F4F1F930F932B
:1002E0000E946F02C8010E94A0000FB6F894DEBF02
:1002F0000FBECDBF60960FB6F894DEBF0FBECDBF68
:10030000DF91CF911F910F91FF90EF9008950E9480
:10031000AD0060E080E00E94B7008AE591E00E94B5
:10032000A00061E080E00E94B70085E691E00C94B7
:10033000A0009091AB018091AC01890F9091AD012B
:10034000890F9091AE01890F853688F00E942901AE
:100350001092AF011092AA0160E08091000190918B
:1003600001010E94450181E08093A90108950C9448
:10037000870183B182709091B001891751F01A9B67
:1003800004C08093B00181E008958093B0018FEFA5
:10039000089580E008950E94EF000E94DB000E9413
:1003A00003010E94F8008823E1F3C1E0C093A80193
:1003B0000E940D012FEF84E39CE02150804090408B
:1003C000E1F700C000000E9417012FEF84E39CE0DA
:1003D000215080409040E1F700C000000E94AD0035
:1003E00060E080E00E94B70083E791E00E94A000F7
:1003F00061E080E00E94B70084E891E00E94A000E4
:100400002FEF84E39CE0215080409040E1F700C052
:100410000000E091AF01F0E0EE0FFF1FE050FF4F52
:100420006091AA01808191810E944501C093A90138
:100430008091A901882309F44BC00E94B9011816C4
:1004400034F46091AA016436B0F46C5E07C088236E
:1004500091F06091AA01662371F064516093AA0142
:10046000E091AF01F0E0EE0FFF1FE050FF4F808101
:1004700091810E9445010E94FC00882349F183ED8F
:1004800090E30197F1F700C000000E94FC00882370
:10049000F9F0E091AF01AE2FB0E0A555BE4F8091CD
:1004A000AA018C93EF5FE093AF01E43068F41092FF
:1004B000AA01F0E0EE0FFF1FE050FF4F60E08081E7
:1004C00091810E94450104C01092A9010E949901E6
:1004D00083ED90E30197F1F700C00000A9CFAEE0F3
:1004E000B0E0E5E7F2E00C943E050D891E898F89A6
:1004F000988D26E02C831A83098397FF02C080E041
:1005000090E801979E838D83AE01455E5F4F698DB4
:100510007A8DCE0101960E949F024D815E8157FD2A
:100520000AC02F813885421753070CF49A01F8014D
:10053000E20FF31F10822E96E4E00C945A05ABE014
:10054000B0E0E5EAF2E00C9430056C017B018A0131
:10055000FC0117821682838181FFCCC1CE010196F6
:100560003C01F6019381F70193FD859193FF819101
:100570007F01882309F4BAC1853239F493FD85914E
:1005800093FF81917F01853229F4B60190E00E94AA
:100590009604E7CF912C212C312CFFE1F315D8F0F4
:1005A0008B3279F038F4803279F08332A1F4232D44
:1005B00020611DC08D3261F0803369F4232D2160EC
:1005C00016C0832D8260382EE32DE4603E2E2AC0B3
:1005D000F32DF8601DC037FC2DC020ED280F2A3008
:1005E00040F08E32B9F436FC81C1232D2064322EC6
:1005F00019C036FE06C08AE0989E200D1124922E66
:1006000011C0EAE02E9E200D1124222EF32DF0625F
:100610003F2E08C08C3621F4832D8068382E02C00E
:10062000883641F4F70193FD859193FF81917F0115
:100630008111B3CF982F9F7D9554933028F40C5F90
:100640001F4F9FE399830DC0833631F0833771F0DC
:10065000833509F059C021C0F801808189830E5F7C
:100660001F4F88248394912C530113C02801F2E07A
:100670004F0E511CF801A080B18036FE03C0692DD9
:1006800070E002C06FEF7FEFC5010E948B044C0148
:100690008201F32DFF773F2E16C0280122E0420E83
:1006A000511CF801A080B18036FE03C0692D70E0B6
:1006B00002C06FEF7FEFC5010E9480044C01F32D53
:1006C000F0683F2E820133FC1BC0822D90E088161B
:1006D0009906B0F4B60180E290E00E9496042A9454
:1006E000F4CFF50137FC859137FE81915F01B601AA
:1006F00090E00E94960421102A9421E0821A910829
:100700008114910471F7E8C0843611F0893641F5FF
:10071000F80137FE07C060817181828193810C5F8F
:100720001F4F08C060817181072E000C880B990B48
:100730000E5F1F4FF32DFF763F2E97FF09C0909558
:100740008095709561957F4F8F4F9F4FF0683F2E3A
:100750002AE030E0A3010E94D204882E861845C00A
:10076000853731F4232D2F7EB22E2AE030E025C0CC
:10077000932D997FB92E8F36C1F018F4883579F012
:10078000B5C0803719F0883721F0B0C0E92FE0619B
:10079000BE2EB4FE0DC0FB2DF460BF2E09C034FE8A
:1007A0000AC0292F2660B22E06C028E030E005C01E
:1007B00020E130E002C020E132E0F801B7FE07C0DE
:1007C00060817181828193810C5F1F4F06C06081BF
:1007D000718180E090E00E5F1F4FA3010E94D20460
:1007E000882E8618FB2DFF773F2E36FE0DC0232D59
:1007F0002E7FA22E891458F434FE0BC032FC09C09F
:10080000832D8E7EA82E05C0B82CA32C03C0B82C37
:1008100001C0B92CA4FE0FC0FE01E80DF11D8081BE
:10082000803321F49A2D997EA92E09C0A2FE06C01C
:10083000B394B39404C08A2D867809F0B394A3FCD2
:1008400011C0A0FE06C0B21488F4280C922C9B188C
:100850000EC0B21460F4B60180E290E00E949604EB
:10086000B394F7CFB21418F42B1802C0982C212C93
:10087000A4FE10C0B60180E390E00E949604A2FEA0
:1008800017C0A1FC03C088E790E002C088E590E0B3
:10089000B6010CC08A2D867859F0A1FE02C08BE209
:1008A00001C080E2A7FC8DE2B60190E00E949604B0
:1008B000891438F4B60180E390E00E9496049A947B
:1008C000F7CF8A94F301E80DF11D8081B60190E025
:1008D0000E9496048110F5CF222009F442CEB60181
:1008E00080E290E00E9496042A94F6CFF601868179
:1008F000978102C08FEF9FEF2B96E2E10C944C059D
:10090000FC010590615070400110D8F780959095DA
:100910008E0F9F1F0895FC016150704001900110DF
:10092000D8F7809590958E0F9F1F08950F931F9372
:10093000CF93DF93FB01238121FD03C08FEF9FEF56
:100940002CC022FF16C04681578124813581421771
:10095000530744F4A081B1819D012F5F3F4F318344
:1009600020838C93268137812F5F3F4F37832683E7
:1009700014C08B01EC01FB010084F185E02D099589
:10098000892BE1F6D80116968D919C9117970196C7
:1009900017969C938E931697CE01DF91CF911F915E
:1009A0000F910895FA01AA27283051F1203181F1E1
:1009B000E8946F936E7F6E5F7F4F8F4F9F4FAF4F67
:1009C000B1E03ED0B4E03CD0670F781F891F9A1F7A
:1009D000A11D680F791F8A1F911DA11D6A0F711D2E
:1009E000811D911DA11D20D009F468943F912AE03A
:1009F000269F11243019305D3193DEF6CF01089522
:100A0000462F4770405D4193B3E00FD0C9F7F6CF52
:100A1000462F4F70405D4A3318F0495D31FD40521A
:100A2000419302D0A9F7EACFB4E0A69597958795B0
:100A300077956795BA95C9F700976105710508958F
:100A40009B01AC010A2E069457954795379527953B
:100A5000BA95C9F7620F731F841F951FA01D0895D3
:100A60002F923F924F925F926F927F928F929F92BE
:100A7000AF92BF92CF92DF92EF92FF920F931F93AC
:100A8000CF93DF93CDB7DEB7CA1BDB0B0FB6F8945D
:100A9000DEBF0FBECDBF09942A88398848885F849D
:100AA0006E847D848C849B84AA84B984C884DF800E
:100AB000EE80FD800C811B81AA81B981CE0FD11DF2
:100AC0000FB6F894DEBF0FBECDBFED010895F894C8
:020AD000FFCF56
:100AD20090019A019401A0010040145457656C637F
:100AE2006F6D650050726F63657373696E672E2E4A
:100AF2000053656C656374207468650050657263A9
:100B0200656E74616765732E2E0045786365656452
:100B1200656420313030250053656C656374206153
:100B22006761696E002564252500596F7572206F13
:100B320072646572006973206F6E20746865207735
:100B4200617900546F74616C2073686F756C6420F6
:100B52006E6F7400657863656564203130302500FE
:100B620050494E454150504C45004D414E474F0073
:080B72004F52414E47450000BF
:00000001FF
