:100000000C9434000C943E000C943E000C943E0082
:100010000C943E000C943E000C943E000C943E0068
:100020000C943E000C943E000C943E000C943E0058
:100030000C943E000C943E000C943E000C943E0048
:100040000C943E000C943E000C943E000C943E0038
:100050000C943E000C943E000C943E000C943E0028
:100060000C943E000C943E0011241FBECFEFD8E04C
:10007000DEBFCDBF0E944F000C9463000C940000C3
:1000800058980895589A0895009741F0E9EFF0E0E4
:100090003197F1F700C000000197F6CF0895509A0C
:1000A0000E94420088EB9BE00E9444000E944000B6
:1000B00080E197E20E9444000E94420080ED97E0B8
:0A00C0000E944400EFCFF894FFCF38
:00000001FF
