:100000000C9434000C9449000C9449000C94490061
:100010000C9449000C9449000C9449000C9449003C
:100020000C9449000C9449000C9449000C9449002C
:100030000C9449000C9449000C9449000C9449001C
:100040000C9449000C9449000C9449000C9449000C
:100050000C9449000C9449000C9449000C944900FC
:100060000C9449000C94490011241FBECFEFD8E036
:10007000DEBFCDBF11E0A0E0B1E0E8E1FAE002C0F0
:1000800005900D92AC38B107D9F70E9472010C941B
:100090000A050C9400001092B90086E48093B80021
:1000A00084E08093BC00089584EA8093BC00809132
:1000B000BC0087FFFCCF089584E98093BC008FE8E3
:1000C00091E00197F1F700C0000008958093BB0014
:1000D00084E88093BC008091BC0087FFFCCF9091A6
:1000E000B900987F983219F081E0983109F480E0E6
:1000F0000895CF93C82F84600E94660085E08A959A
:10010000F1F700008C2F8B7F0E9466008FE39FE148
:100110000197F1F700C00000CF910895CF93C82F49
:100120000E9454008EE40E9466008C2F807F8860BD
:100130000E94790020E1C29FC001112488600E94C2
:100140007900CF910C945C00CF93C82F0E9454008B
:100150008EE40E9466008C2F807F89600E94790067
:1001600020E1C29FC001112489600E947900CF91D3
:100170000C945C000E944B002FEF89EF90E021501F
:1001800080409040E1F700C0000082E00E948E00B5
:1001900088E20E948E008CE00E948E0086E00E9421
:1001A0008E0081E00E948E008FE39FE10197F1F7BE
:1001B00000C000000895CF93DF93EC01899188235C
:1001C00019F00E94A400FACFDF91CF91089581E049
:1001D0000E948E008FE39FE10197F1F700C00000BD
:1001E00008953B983A98439A429A80E480937C0021
:1001F00086E880937A00089586B183FB882780F98A
:1002000091E08927089586B182FB882780F991E0E3
:10021000892708950E94E70088E091E00E94DB00B2
:1002200080EC0E948E0083E191E00C94DB000E9440
:10023000E70080E291E00E94DB0080EC0E948E00EB
:100240008BE291E00C94DB00FF920F931F93CF930E
:10025000DF93CDB7DEB760970FB6F894DEBF0FBE61
:10026000CDBF182F092FF62E0E94E7001F92FF9294
:100270000F931F9387E391E09F938F931F9280E1E9
:100280008F938E010F5F1F4F1F930F930E941202D7
:10029000C8010E94DB000FB6F894DEBF0FBECDBFD1
:1002A00060960FB6F894DEBF0FBECDBFDF91CF9141
:1002B0001F910F91FF9008950E94E7008FE391E056
:1002C0000E94DB0080EC0E948E008DE491E00C9493
:1002D000DB006CEC70E00E94FE0184E1869F802DC3
:1002E00011240895CF93DF93CDB7DEB728970FB6CB
:1002F000F894DEBF0FBECDBF88E0E0E0F1E0DE01A4
:10030000119601900D928A95E1F70E94F1000E94EA
:10031000BA000E94E70088E591E00E94DB0080ECD3
:100320000E948E0085E691E00E94DB0010E0C12C67
:1003300000E08CECE82EF12C94E1B92E0E94FC0038
:10034000D82E882369F101112BC00E940A012FEFDA
:1003500085EA9EE0215080409040E1F700C0000017
:100360000E9417012FEF85EA9EE0215080409040C7
:10037000E1F700C000008091780090917900B7010A
:100380000E94FE016B9D602D1124FE013196E10F4C
:10039000F11DE10FF11D808191810E9424011F5FF9
:1003A0000E940301082F8823E9F0C1101BC01430FC
:1003B000B0F48091780090917900B7010E94FE011D
:1003C0006B9D602D1124FE013196E10FF11DE10FAF
:1003D000F11D808191810E9424011F5F03C00E9452
:1003E0005C0110E02FEF81EE94E0215080409040BE
:1003F000E1F700C00000C02E0D2DA0CFAA1BBB1B33
:1004000051E107C0AA1FBB1FA617B70710F0A61B14
:10041000B70B881F991F5A95A9F780959095BC0135
:10042000CD010895AEE0B0E0E8E1F2E00C94E10423
:100430000D891E898F89988D26E02C831A83098364
:1004400097FF02C080E090E801979E838D83AE0104
:10045000455E5F4F698D7A8DCE0101960E94420202
:100460004D815E8157FD0AC02F81388542175307A1
:100470000CF49A01F801E20FF31F10822E96E4E0CB
:100480000C94FD04ABE0B0E0E8E4F2E00C94D3049B
:100490006C017B018A01FC0117821682838181FF36
:1004A000CCC1CE0101963C01F6019381F70193FD89
:1004B000859193FF81917F01882309F4BAC1853228
:1004C00039F493FD859193FF81917F01853229F461
:1004D000B60190E00E943904E7CF912C212C312CF9
:1004E000FFE1F315D8F08B3279F038F4803279F0EF
:1004F0008332A1F4232D20611DC08D3261F0803341
:1005000069F4232D216016C0832D8260382EE32DDF
:10051000E4603E2E2AC0F32DF8601DC037FC2DC0CC
:1005200020ED280F2A3040F08E32B9F436FC81C11C
:10053000232D2064322E19C036FE06C08AE0989E14
:10054000200D1124922E11C0EAE02E9E200D1124C0
:10055000222EF32DF0623F2E08C08C3621F4832D1D
:100560008068382E02C0883641F4F70193FD8591EA
:1005700093FF81917F018111B3CF982F9F7D955477
:10058000933028F40C5F1F4F9FE399830DC083368F
:1005900031F0833771F0833509F059C021C0F8017B
:1005A000808189830E5F1F4F88248394912C53018F
:1005B00013C02801F2E04F0E511CF801A080B18059
:1005C00036FE03C0692D70E002C06FEF7FEFC501FA
:1005D0000E942E044C018201F32DFF773F2E16C09E
:1005E000280122E0420E511CF801A080B18036FEA5
:1005F00003C0692D70E002C06FEF7FEFC5010E945C
:1006000023044C01F32DF0683F2E820133FC1BC004
:10061000822D90E088169906B0F4B60180E290E051
:100620000E9439042A94F4CFF50137FC859137FEF6
:1006300081915F01B60190E00E94390421102A9453
:1006400021E0821A91088114910471F7E8C0843680
:1006500011F0893641F5F80137FE07C060817181DC
:10066000828193810C5F1F4F08C060817181072ECA
:10067000000C880B990B0E5F1F4FF32DFF763F2E5A
:1006800097FF09C090958095709561957F4F8F4F2A
:100690009F4FF0683F2E2AE030E0A3010E947504CE
:1006A000882E861845C0853731F4232D2F7EB22E33
:1006B0002AE030E025C0932D997FB92E8F36C1F006
:1006C00018F4883579F0B5C0803719F0883721F0F3
:1006D000B0C0E92FE061BE2EB4FE0DC0FB2DF4606A
:1006E000BF2E09C034FE0AC0292F2660B22E06C0D4
:1006F00028E030E005C020E130E002C020E132E037
:10070000F801B7FE07C060817181828193810C5F1F
:100710001F4F06C06081718180E090E00E5F1F4F27
:10072000A3010E947504882E8618FB2DFF773F2EAB
:1007300036FE0DC0232D2E7FA22E891458F434FED0
:100740000BC032FC09C0832D8E7EA82E05C0B82CAC
:10075000A32C03C0B82C01C0B92CA4FE0FC0FE010D
:10076000E80DF11D8081803321F49A2D997EA92E08
:1007700009C0A2FE06C0B394B39404C08A2D867843
:1007800009F0B394A3FC11C0A0FE06C0B21488F413
:10079000280C922C9B180EC0B21460F4B60180E2B3
:1007A00090E00E943904B394F7CFB21418F42B18D8
:1007B00002C0982C212CA4FE10C0B60180E390E06A
:1007C0000E943904A2FE17C0A1FC03C088E790E094
:1007D00002C088E590E0B6010CC08A2D867859F0F9
:1007E000A1FE02C08BE201C080E2A7FC8DE2B6014F
:1007F00090E00E943904891438F4B60180E390E057
:100800000E9439049A94F7CF8A94F301E80DF11D00
:100810008081B60190E00E9439048110F5CF22203A
:1008200009F442CEB60180E290E00E9439042A9495
:10083000F6CFF6018681978102C08FEF9FEF2B964E
:10084000E2E10C94EF04FC0105906150704001104E
:10085000D8F7809590958E0F9F1F0895FC016150E9
:10086000704001900110D8F7809590958E0F9F1FD2
:1008700008950F931F93CF93DF93FB01238121FDF5
:1008800003C08FEF9FEF2CC022FF16C04681578117
:10089000248135814217530744F4A081B1819D0121
:1008A0002F5F3F4F318320838C93268137812F5FC9
:1008B0003F4F3783268314C08B01EC01FB0100847A
:1008C000F185E02D0995892BE1F6D80116968D91D9
:1008D0009C911797019617969C938E931697CE012D
:1008E000DF91CF911F910F910895FA01AA27283027
:1008F00051F1203181F1E8946F936E7F6E5F7F4FED
:100900008F4F9F4FAF4FB1E03ED0B4E03CD0670F68
:10091000781F891F9A1FA11D680F791F8A1F911DBB
:10092000A11D6A0F711D811D911DA11D20D009F40B
:1009300068943F912AE0269F11243019305D31934D
:10094000DEF6CF010895462F4770405D4193B3E036
:100950000FD0C9F7F6CF462F4F70405D4A3318F0DD
:10096000495D31FD4052419302D0A9F7EACFB4E08E
:10097000A6959795879577956795BA95C9F7009746
:100980006105710508959B01AC010A2E06945795E7
:10099000479537952795BA95C9F7620F731F841F3E
:1009A000951FA01D08952F923F924F925F926F92D4
:1009B0007F928F929F92AF92BF92CF92DF92EF92EF
:1009C000FF920F931F93CF93DF93CDB7DEB7CA1B70
:1009D000DB0B0FB6F894DEBF0FBECDBF09942A889B
:1009E000398848885F846E847D848C849B84AA8443
:1009F000B984C884DF80EE80FD800C811B81AA81D0
:100A0000B981CE0FD11D0FB6F894DEBF0FBECDBF9A
:080A1000ED010895F894FFCFF9
:100A180074017E017801840150726F636573736994
:100A28006E67004175746F204D6F64652E2E2E0021
:100A380043686F6F736520746865005065726365FD
:100A48006E74616765730025732025642525005938
:100A58006F7572206F72646572206973006F6E2003
:100A68007468652077617900312E204175746F2094
:100A78004D6F646500322E204D616E75616C204D9E
:100A88006F64650050494E454150504C45004D41FA
:0C0A98004E474F004F52414E47450000B2
:00000001FF
