:100000000C9434000C943E000C943E000C943E0082
:100010000C943E000C943E000C943E000C943E0068
:100020000C943E000C943E000C943E000C943E0058
:100030000C943E000C943E000C943E000C943E0048
:100040000C943E000C943E000C943E000C943E0038
:100050000C943E000C943E000C943E000C943E0028
:100060000C943E000C943E0011241FBECFEFD8E04C
:10007000DEBFCDBF0E9457000C946B000C940000B3
:1000800008954098419A089588B18C7F88B9089561
:10009000429A0895429808954398449A089588B1E1
:1000A000877E88B90895459A08954598089587B13F
:1000B0008F6387B90E9444000E944F000E9448004D
:1000C0000E9453000E9441000E9444000E944C0084
:0A00D0000E944F00F7CFF894FFCF15
:00000001FF
