:100000000C9434000C94A1010C9451000C945100F8
:100010000C94F5010C9451000C9451000C94510077
:100020000C9451000C9451000C9451000C9451000C
:100030000C9451000C9451000C9451000C945100FC
:100040000C9451000C9451000C9451000C945100EC
:100050000C9451000C9451000C9451000C945100DC
:100060000C9451000C94510011241FBECFEFD8E026
:10007000DEBFCDBF11E0A0E0B1E0EEE9FAE002C0E2
:1000800005900D92A634B107D9F721E0A6E4B1E0BE
:1000900001C01D92AA34B207E1F70E9447020C94F6
:1000A0004D050C9400001092B90086E48093B800CE
:1000B00084E08093BC00089584EA8093BC00809122
:1000C000BC0087FFFCCF089584E98093BC008FE8D3
:1000D00091E00197F1F700C0000008958093BB0004
:1000E00084E88093BC008091BC0087FFFCCF909196
:1000F000B900987F983219F081E0983109F480E0D6
:100100000895CF93C82F84600E946E0085E08A9581
:10011000F1F700008C2F8B7F0E946E008FE39FE130
:100120000197F1F700C00000CF910895CF93C82F39
:100130000E945C008EE40E946E008C2F807F88609D
:100140000E94810020E1C29FC001112488600E94AA
:100150008100CF910C946400CF93C82F0E945C0063
:100160008EE40E946E008C2F807F89600E94810047
:1001700020E1C29FC001112489600E948100CF91BB
:100180000C9464000E9453002FEF89EF90E02150FF
:1001900080409040E1F700C0000082E00E9496009D
:1001A00088E20E9496008CE00E94960086E00E9401
:1001B000960081E00E9496008FE39FE10197F1F79E
:1001C00000C000000895811102C080E801C080ECE9
:1001D000860F0C949600CF93DF93EC0189918823CE
:1001E00019F00E94AC00FACFDF91CF91089581E021
:1001F0000E9496008FE39FE10197F1F700C0000095
:1002000008958AB1837F8AB98BB18C608BB93A9893
:10021000429AE9E6F0E0808181608083E89AE8E62E
:10022000F0E0808182608083ECE6F0E08081846091
:10023000808308950F931F93CF93DF9300D000D056
:100240001F92CDB7DEB79F938F938EE091E09F937F
:100250008F931F9285E08F938E010F5F1F4F1F9327
:100260000F930E94550280EC0E94960083E191E07A
:100270000E94EB0080EC0E949600C8010E94EB00F7
:100280000FB6F894DEBF0FBECDBF0F900F900F904A
:100290000F900F90DF91CF911F910F9108954A9B7E
:1002A00003C04B9903C008C04B9906C08091480118
:1002B00090914901019705C08091480190914901B1
:1002C0000196909349018093480180914801909153
:1002D000490106973CF085E090E0909349018093B6
:1002E00048010AC0809148019091490197FF04C0DC
:1002F00010924901109248018091000190910101F2
:10030000892B59F0209148013091490144E1429FE5
:10031000C001439F900D11240AC0E0914801F09163
:100320004901EE0FFF1FEE5FFE4F80819181909398
:1003300047018093460180914601909147010C94BA
:100340001A011F920F920FB60F9211242F933F9311
:100350004F935F936F937F938F939F93AF93BF93CD
:10036000EF93FF930E944F01FF91EF91BF91AF91E7
:100370009F918F917F916F915F914F913F912F91BD
:100380000F900FBE0F901F901895809100019091D3
:100390000101892B49F1E0914801F09149018091D7
:1003A000460190914701EE0FFF1FEE5FFE4F9183D4
:1003B00080830E94F70080E291E00E94EB002FEF23
:1003C00089E698E1215080409040E1F700C00000AC
:1003D0000E94F7008CE291E00E94EB0080914601C0
:1003E000909147010C941A0108951F920F920FB635
:1003F0000F9211242F933F934F935F936F937F93AB
:100400008F939F93AF93BF93EF93FF93329B0E9481
:10041000C501FF91EF91BF91AF919F918F917F9116
:100420006F915F914F913F912F910F900FBE0F9061
:100430001F90189532992AC02FEF87EA91E6215034
:1004400080409040E1F700C0000032991FC0109238
:100450000101109200010E94F70084E391E00E94E4
:10046000EB002FEF89E698E1215080409040E1F7C2
:1004700000C000000E94F7008CE291E00E94EB00B7
:1004800080914601909147010C941A0108950E94B1
:1004900001010E94C2000E94F7008CE291E00E94DC
:1004A000EB0078940E941A02FDCFAEE0B0E0EBE5DD
:1004B000F2E00C9424050D891E898F89988D26E021
:1004C0002C831A83098397FF02C080E090E801978C
:1004D0009E838D83AE01455E5F4F698D7A8DCE011F
:1004E00001960E9485024D815E8157FD0AC02F81D1
:1004F0003885421753070CF49A01F801E20FF31FF5
:1005000010822E96E4E00C944005ABE0B0E0EBE8FE
:10051000F2E00C9416056C017B018A01FC01178244
:100520001682838181FFCCC1CE0101963C01F60188
:100530009381F70193FD859193FF81917F0188233A
:1005400009F4BAC1853239F493FD859193FF819105
:100550007F01853229F4B60190E00E947C04E7CF48
:10056000912C212C312CFFE1F315D8F08B3279F04E
:1005700038F4803279F08332A1F4232D20611DC03C
:100580008D3261F0803369F4232D216016C0832DF4
:100590008260382EE32DE4603E2E2AC0F32DF860F1
:1005A0001DC037FC2DC020ED280F2A3040F08E32C0
:1005B000B9F436FC81C1232D2064322E19C036FED9
:1005C00006C08AE0989E200D1124922E11C0EAE008
:1005D0002E9E200D1124222EF32DF0623F2E08C0F6
:1005E0008C3621F4832D8068382E02C0883641F481
:1005F000F70193FD859193FF81917F018111B3CF25
:10060000982F9F7D9554933028F40C5F1F4F9FE3E4
:1006100099830DC0833631F0833771F0833509F04B
:1006200059C021C0F801808189830E5F1F4F882443
:100630008394912C530113C02801F2E04F0E511CFA
:10064000F801A080B18036FE03C0692D70E002C0C1
:100650006FEF7FEFC5010E9471044C018201F32D01
:10066000FF773F2E16C0280122E0420E511CF801F0
:10067000A080B18036FE03C0692D70E002C06FEF2C
:100680007FEFC5010E9466044C01F32DF0683F2EF8
:10069000820133FC1BC0822D90E088169906B0F4CD
:1006A000B60180E290E00E947C042A94F4CFF50128
:1006B00037FC859137FE81915F01B60190E00E9481
:1006C0007C0421102A9421E0821A9108811491045B
:1006D00071F7E8C0843611F0893641F5F80137FE2C
:1006E00007C060817181828193810C5F1F4F08C0B8
:1006F00060817181072E000C880B990B0E5F1F4FD4
:10070000F32DFF763F2E97FF09C090958095709549
:1007100061957F4F8F4F9F4FF0683F2E2AE030E06A
:10072000A3010E94B804882E861845C0853731F48D
:10073000232D2F7EB22E2AE030E025C0932D997F05
:10074000B92E8F36C1F018F4883579F0B5C08037EE
:1007500019F0883721F0B0C0E92FE061BE2EB4FE59
:100760000DC0FB2DF460BF2E09C034FE0AC0292F36
:100770002660B22E06C028E030E005C020E130E05F
:1007800002C020E132E0F801B7FE07C0608171814C
:10079000828193810C5F1F4F06C06081718180E070
:1007A00090E00E5F1F4FA3010E94B804882E8618A8
:1007B000FB2DFF773F2E36FE0DC0232D2E7FA22E60
:1007C000891458F434FE0BC032FC09C0832D8E7E90
:1007D000A82E05C0B82CA32C03C0B82C01C0B92C7E
:1007E000A4FE0FC0FE01E80DF11D8081803321F4CD
:1007F0009A2D997EA92E09C0A2FE06C0B394B39487
:1008000004C08A2D867809F0B394A3FC11C0A0FE21
:1008100006C0B21488F4280C922C9B180EC0B21497
:1008200060F4B60180E290E00E947C04B394F7CFBC
:10083000B21418F42B1802C0982C212CA4FE10C05E
:10084000B60180E390E00E947C04A2FE17C0A1FCE8
:1008500003C088E790E002C088E590E0B6010CC0D4
:100860008A2D867859F0A1FE02C08BE201C080E299
:10087000A7FC8DE2B60190E00E947C04891438F454
:10088000B60180E390E00E947C049A94F7CF8A94AA
:10089000F301E80DF11D8081B60190E00E947C0417
:1008A0008110F5CF222009F442CEB60180E290E01B
:1008B0000E947C042A94F6CFF6018681978102C0BB
:1008C0008FEF9FEF2B96E2E10C943205FC0105902F
:1008D000615070400110D8F7809590958E0F9F1F42
:1008E0000895FC016150704001900110D8F7809587
:1008F00090958E0F9F1F08950F931F93CF93DF93B3
:10090000FB01238121FD03C08FEF9FEF2CC022FF4D
:1009100016C046815781248135814217530744F41C
:10092000A081B1819D012F5F3F4F318320838C9344
:10093000268137812F5F3F4F3783268314C08B0179
:10094000EC01FB010084F185E02D0995892BE1F68E
:10095000D80116968D919C911797019617969C93A6
:100960008E931697CE01DF91CF911F910F9108952D
:10097000FA01AA27283051F1203181F1E8946F93D0
:100980006E7F6E5F7F4F8F4F9F4FAF4FB1E03ED076
:10099000B4E03CD0670F781F891F9A1FA11D680F14
:1009A000791F8A1F911DA11D6A0F711D811D911D47
:1009B000A11D20D009F468943F912AE0269F1124BC
:1009C0003019305D3193DEF6CF010895462F477020
:1009D000405D4193B3E00FD0C9F7F6CF462F4F707B
:1009E000405D4A3318F0495D31FD4052419302D0D9
:1009F000A9F7EACFB4E0A69597958795779567957F
:100A0000BA95C9F700976105710508959B01AC017E
:100A10000A2E06945795479537952795BA95C9F7A5
:100A2000620F731F841F951FA01D08952F923F9280
:100A30004F925F926F927F928F929F92AF92BF92EE
:100A4000CF92DF92EF92FF920F931F93CF93DF939A
:100A5000CDB7DEB7CA1BDB0B0FB6F894DEBF0FBEF7
:100A6000CDBF09942A88398848885F846E847D8444
:100A70008C849B84AA84B984C884DF80EE80FD8046
:100A80000C811B81AA81B981CE0FD11D0FB6F894BC
:0E0A9000DEBF0FBECDBFED010895F894FFCF7D
:100A9E0001000000140028003C0050006400256492
:100AAE00252500202020202020202020202020006E
:100ABE0043616C69627261746564200056616C7585
:100ACE00653A200043616C6962726174696F6E20D1
:060ADE00446F6E6500008C
:00000001FF
