:100000000C9434000C9449000C9449000C94490061
:100010000C9449000C9449000C9449000C9449003C
:100020000C9449000C9449000C9449000C9449002C
:100030000C9449000C9449000C9449000C9449001C
:100040000C9449000C9449000C9449000C9449000C
:100050000C9449000C9449000C9449000C944900FC
:100060000C9449000C94490011241FBECFEFD8E036
:10007000DEBFCDBF11E0A0E0B1E0E8E1F2E002C0F8
:1000800005900D92A032B107D9F70E94E7000C94B9
:100090000A010C9400001092B9008CE08093B80023
:1000A00084E08093BC00089584EA8093BC00809132
:1000B000BC0087FFFCCF089584E98093BC000895BD
:1000C0008093BB0084E88093BC008091BC0087FFD4
:1000D000FCCF0895CF93C82F0E9454008EE40E9455
:1000E00060008C2F84600E94600000008C2F8B7F4A
:1000F0000E94600080E18A95F1F700C084E9809356
:10010000BC00CF910895CF93DF93C82FD62FD8602E
:10011000807F8D2B0E946A0020E1C29FC0011124C4
:100120008D2BDF91CF910C946A0060E00C948300DA
:10013000CF93DF93EC018991882321F061E00E9445
:100140008300F9CFDF91CF91089581E00E9495005F
:1001500083EF91E00197F1F700C0000008950F933D
:100160001F93CF93DF9300D000D0CDB7DEB70091BF
:1001700000011091010120910201309103010983D6
:100180001A832B833C83FE01E60FF11D9181890FB9
:1001900080680F900F900F900F90DF91CF911F917B
:1001A0000F910C94950083ED90E30197F1F700C057
:1001B000000082E00E94950088E20E9495008CE099
:1001C0000E94950086E00E9495000C94A500209A5C
:1001D0000E94D3000E94A50060E080E00E94AF0072
:1001E00084E091E00E94980061E080E00E94AF000E
:1001F00081E191E00E94980091E085B1892785B95D
:100200002FE936E881E0215030408040E1F700C01E
:080210000000F3CFF894FFCFCA
:1002180000401454312E204175746F204D6F646571
:1002280000322E204D616E75616C204D6F64650043
:00000001FF
