:100000000C9434000C9449000C9449000C94490061
:100010000C9449000C9449000C9449000C9449003C
:100020000C9449000C9449000C9449000C9449002C
:100030000C9449000C9449000C9449000C9449001C
:100040000C9449000C9449000C9449000C9449000C
:100050000C9449000C9449000C9449000C944900FC
:100060000C9449000C94490011241FBECFEFD8E036
:10007000DEBFCDBF11E0A0E0B1E0ECE5F2E002C0F0
:1000800005900D92A633B107D9F70E9408010C9490
:100090002C010C9400001092B90086E48093B80003
:1000A00084E08093BC00089584EA8093BC00809132
:1000B000BC0087FFFCCF089584E98093BC008FE8E3
:1000C00091E00197F1F700C0000008958093BB0014
:1000D00084E88093BC008091BC0087FFFCCF9091A6
:1000E000B900987F983219F081E0983109F480E0E6
:1000F0000895CF93C82F84600E94660085E08A959A
:10010000F1F700008C2F8B7F0E9466008FE39FE148
:100110000197F1F700C00000CF910895CF93C82F49
:100120000E9454008EE40E9466008C2F807F8860BD
:100130000E94790020E1C29FC001112488600E94C2
:100140007900CF910C945C00CF93C82F0E9454008B
:100150008EE40E9466008C2F807F89600E94790067
:1001600020E1C29FC001112489600E947900CF91D3
:100170000C945C000E944B002FEF89EF90E021501F
:1001800080409040E1F700C0000082E00E948E00B5
:1001900088E20E948E008CE00E948E0086E00E9421
:1001A0008E0081E00E948E008FE39FE10197F1F7BE
:1001B00000C000000895CF93DF93EC01899188235C
:1001C00019F00E94A400FACFDF91CF91089581E049
:1001D0000E948E008FE39FE10197F1F700C00000BD
:1001E00008953B98439A089586B183FB882780F948
:1001F00091E0892708950E94E70080E091E00E9445
:10020000DB0080EC0E948E008BE091E00C94DB0020
:100210000E94F1000E94BA0089E191E00E94DB0097
:1002200080EC0E948E0086E291E00E94DB00C0E03C
:100230000E94F400D82F882321F0C11102C00E942F
:10024000FB002FEF81EE94E0215080409040E1F7D9
:0C02500000C00000CD2FECCFF894FFCFD1
:10025C0050726F63657373696E67004175746F20BC
:10026C004D6F64652E2E2E2E00312E204175746F2D
:10027C00204D6F646500322E204D616E75616C20CF
:06028C004D6F64650000E7
:00000001FF
