:100000000C9434000C9451000C9451000C94510049
:100010000C9451000C9451000C9451000C9451001C
:100020000C9451000C9451000C9451000C9451000C
:100030000C9451000C9451000C9451000C945100FC
:100040000C9451000C9451000C9451000C945100EC
:100050000C9451000C9451000C9451000C945100DC
:100060000C9451000C94510011241FBECFEFD8E026
:10007000DEBFCDBF11E0A0E0B1E0E6E1FCE002C0F0
:1000800005900D92A83DB107D9F721E0A8EDB1E0A8
:1000900001C01D92A13EB207E1F70E9466020C94D6
:1000A00009060C9400001092B9008CE08093B8000F
:1000B00084E08093BC00089584EA8093BC00809122
:1000C000BC0087FFFCCF089584E98093BC000895AD
:1000D0008093BB0084E88093BC008091BC0087FFC4
:1000E000FCCF0895CF93C82F0E945C008EE40E943D
:1000F00068008C2F84600E94680085E08A95F1F783
:1001000000008C2F8B7F0E94680087EC90E00197A5
:10011000F1F700C0000084E98093BC00CF910895FE
:10012000CF93DF93C82FD62FD860807F8D2B0E946E
:10013000720020E1C29FC00111248D2BDF91CF916D
:100140000C94720060E00C949000CF93DF93EC016C
:100150008991882321F061E00E949000F9CFDF911E
:10016000CF91089581E00E94A2008FE39FE1019763
:10017000F1F700C0000008950F931F93CF93DF9312
:1001800000D000D0CDB7DEB7009108011091090171
:1001900020910A0130910B0109831A832B833C8340
:1001A000FE01E60FF11D9181890F80680F900F907D
:1001B0000F900F90DF91CF911F910F910C94A2009F
:1001C0002FEF80E792E0215080409040E1F700C09F
:1001D000000082E00E94A20088E20E94A2008CE05F
:1001E0000E94A20086E00E94A2000C94B20086B198
:1001F00080958170089583B183FB882780F991E011
:10020000892708950E94B20060E080E00E94BC004F
:100210008CE091E00E94A50061E080E00E94BC00BB
:1002200089E191E00C94A5000E94B20060E080E0BA
:100230000E94BC0088E291E00E94A50061E080E09D
:100240000E94BC0083E391E00C94A5000E94B200E0
:1002500060E080E00E94BC0080E491E00E94A50084
:1002600061E080E00E94BC008BE491E00C94A5006A
:100270000E94B20060E080E00E94BC0089E591E04D
:100280000E94A50061E080E00E94BC0087E691E04A
:100290000E94A5002FEF8FE493EC21508040904006
:1002A000E1F700C000000895EF92FF920F931F93B3
:1002B000CF93DF93CDB7DEB760970FB6F894DEBF6C
:1002C0000FBECDBF7C01162F0E94B20060E080E01F
:1002D0000E94BC00C7010E94A50061E080E00E946E
:1002E000BC001F921F9384E791E09F938F931F920E
:1002F00080E18F938E010F5F1F4F1F930F930E941A
:100300001103C8010E94A5000FB6F894DEBF0FBE0E
:10031000CDBF60960FB6F894DEBF0FBECDBFDF91A4
:10032000CF911F910F91FF90EF9008950E94B2001E
:1003300060E080E00E94BC0089E791E00E94A50097
:1003400061E080E00E94BC0087E891E00C94A50089
:100350000E94B20060E080E00E94BC0082E991E06F
:100360000E94A50061E080E00E94BC0088E991E065
:100370000E94A5002FEF8FE493EC21508040904025
:10038000E1F700C00000089583B182709091E00110
:10039000891751F01A9B04C08093E00181E0089511
:1003A0008093E0018FEF089580E008958BB18F6016
:1003B0008BB908953898409A21982298239885B14E
:1003C0008E6085B98AB18F608AB90C94D6018C335E
:1003D00091F038F4843161F0883299F48EE090E144
:1003E0000895803559F0843661F48EEA9FE10895CE
:1003F00084E898E0089582E696E108958AE39BE117
:10040000089580E090E00895CF93C82F862F0E9432
:10041000E7014BB121E030E001C0220FCA95EAF7B5
:10042000522F509545234BB9009741F0EFE9FFE07B
:100430003197F1F700C000000197F6CF8BB1282B60
:100440002BB9CF9108950F931F93CF939091DB0118
:100450008091DC01890F9091DD01890F9091DE017F
:10046000890F8536A0F00E9438011092DF011092AA
:10047000DA0160E080910001909101010E94540135
:1004800081E08093D901CF911F910F9108950E942F
:1004900096010BED11E0C0E0F80161918F018C2F06
:1004A0000E940402CF5FC430B9F70E94A8011092E5
:1004B000DF011092DE011092DD011092DC0110923A
:1004C000DB01CF911F910F910C9402010E94DA0180
:1004D0000E94E000C1E00E9402010E94F700882310
:1004E000E1F3C093D8010E9414012FEF8FE493EC45
:1004F000215080409040E1F700C000000E9426019A
:100500002FEF8FE493EC215080409040E1F700C042
:1005100000000E94B20060E080E00E94BC0083EA1C
:1005200091E00E94A50061E080E00E94BC0084EBA5
:1005300091E00E94A5002FEF8FE493EC21508040C2
:100540009040E1F700C00000E091DF01F0E0EE0F25
:10055000FF1FE050FF4F6091DA01808191810E947E
:100560005401C093D9018091D901882309F44FC067
:100570000E94C401181634F46091DA016436B0F4B4
:100580006C5E07C0882391F06091DA01662371F0F8
:1005900064516093DA01E091DF01F0E0EE0FFF1F9C
:1005A000E050FF4F808191810E9454010E94FB0026
:1005B000882369F12FEF80E792E02150804090403E
:1005C000E1F700C000000E94FB00882301F1E091E8
:1005D000DF01AE2FB0E0A552BE4F8091DA018C93BF
:1005E000EF5FE093DF01E43068F41092DA01F0E0AD
:1005F000EE0FFF1FE050FF4F60E0808191810E946D
:10060000540105C01092D9010E94230264CF2FEF3C
:1006100080E792E0215080409040E1F700C0000068
:10062000A2CFAEE0B0E0E7E1F3E00C94E0050D8985
:100630001E898F89988D26E02C831A83098397FF62
:1006400002C080E090E801979E838D83AE01455EF5
:100650005F4F698D7A8DCE0101960E9441034D81D5
:100660005E8157FD0AC02F813885421753070CF46D
:100670009A01F801E20FF31F10822E96E4E00C9429
:10068000FC05ABE0B0E0E7E4F3E00C94D2056C01CC
:100690007B018A01FC0117821682838181FFCCC114
:1006A000CE0101963C01F6019381F70193FD8591FE
:1006B00093FF81917F01882309F4BAC1853239F40F
:1006C00093FD859193FF81917F01853229F4B601D5
:1006D00090E00E943805E7CF912C212C312CFFE1CE
:1006E000F315D8F08B3279F038F4803279F0833218
:1006F000A1F4232D20611DC08D3261F0803369F497
:10070000232D216016C0832D8260382EE32DE460F6
:100710003E2E2AC0F32DF8601DC037FC2DC020ED01
:10072000280F2A3040F08E32B9F436FC81C1232DD7
:100730002064322E19C036FE06C08AE0989E200D35
:100740001124922E11C0EAE02E9E200D1124222E9B
:10075000F32DF0623F2E08C08C3621F4832D806883
:10076000382E02C0883641F4F70193FD859193FF3E
:1007700081917F018111B3CF982F9F7D9554933044
:1007800028F40C5F1F4F9FE399830DC0833631F02F
:10079000833771F0833509F059C021C0F801808199
:1007A00089830E5F1F4F88248394912C530113C0BB
:1007B0002801F2E04F0E511CF801A080B18036FEF6
:1007C00003C0692D70E002C06FEF7FEFC5010E948A
:1007D0002D054C018201F32DFF773F2E16C0280115
:1007E00022E0420E511CF801A080B18036FE03C009
:1007F000692D70E002C06FEF7FEFC5010E942205F6
:100800004C01F32DF0683F2E820133FC1BC0822D7A
:1008100090E088169906B0F4B60180E290E00E945C
:1008200038052A94F4CFF50137FC859137FE819184
:100830005F01B60190E00E94380521102A9421E062
:10084000821A91088114910471F7E8C0843611F07E
:10085000893641F5F80137FE07C0608171818281D8
:1008600093810C5F1F4F08C060817181072E000CBF
:10087000880B990B0E5F1F4FF32DFF763F2E97FFCE
:1008800009C090958095709561957F4F8F4F9F4FD0
:10089000F0683F2E2AE030E0A3010E947405882E04
:1008A000861845C0853731F4232D2F7EB22E2AE0DD
:1008B00030E025C0932D997FB92E8F36C1F018F402
:1008C000883579F0B5C0803719F0883721F0B0C08D
:1008D000E92FE061BE2EB4FE0DC0FB2DF460BF2EEB
:1008E00009C034FE0AC0292F2660B22E06C028E0B7
:1008F00030E005C020E130E002C020E132E0F80144
:10090000B7FE07C060817181828193810C5F1F4FA8
:1009100006C06081718180E090E00E5F1F4FA301EF
:100920000E947405882E8618FB2DFF773F2E36FE19
:100930000DC0232D2E7FA22E891458F434FE0BC037
:1009400032FC09C0832D8E7EA82E05C0B82CA32CA6
:1009500003C0B82C01C0B92CA4FE0FC0FE01E80DE5
:10096000F11D8081803321F49A2D997EA92E09C032
:10097000A2FE06C0B394B39404C08A2D867809F011
:10098000B394A3FC11C0A0FE06C0B21488F4280CD6
:10099000922C9B180EC0B21460F4B60180E290E075
:1009A0000E943805B394F7CFB21418F42B1802C084
:1009B000982C212CA4FE10C0B60180E390E00E9488
:1009C0003805A2FE17C0A1FC03C088E790E002C072
:1009D00088E590E0B6010CC08A2D867859F0A1FE1A
:1009E00002C08BE201C080E2A7FC8DE2B60190E07C
:1009F0000E943805891438F4B60180E390E00E9423
:100A000038059A94F7CF8A94F301E80DF11D80819F
:100A1000B60190E00E9438058110F5CF222009F43C
:100A200042CEB60180E290E00E9438052A94F6CFCB
:100A3000F6018681978102C08FEF9FEF2B96E2E14E
:100A40000C94EE05FC010590615070400110D8F740
:100A5000809590958E0F9F1F0895FC016150704006
:100A600001900110D8F7809590958E0F9F1F0895E3
:100A70000F931F93CF93DF93FB01238121FD03C0CD
:100A80008FEF9FEF2CC022FF16C046815781248133
:100A900035814217530744F4A081B1819D012F5F36
:100AA0003F4F318320838C93268137812F5F3F4FC7
:100AB0003783268314C08B01EC01FB010084F18590
:100AC000E02D0995892BE1F6D80116968D919C9120
:100AD0001797019617969C938E931697CE01DF91E8
:100AE000CF911F910F910895FA01AA27283051F153
:100AF000203181F1E8946F936E7F6E5F7F4F8F4F4F
:100B00009F4FAF4FB1E03ED0B4E03CD0670F781FAD
:100B1000891F9A1FA11D680F791F8A1F911DA11D92
:100B20006A0F711D811D911DA11D20D009F46894CB
:100B30003F912AE0269F11243019305D3193DEF673
:100B4000CF010895462F4770405D4193B3E00FD029
:100B5000C9F7F6CF462F4F70405D4A3318F0495D14
:100B600031FD4052419302D0A9F7EACFB4E0A695F7
:100B70009795879577956795BA95C9F70097610519
:100B8000710508959B01AC010A2E0694579547956F
:100B900037952795BA95C9F7620F731F841F951F64
:100BA000A01D08952F923F924F925F926F927F9275
:100BB0008F929F92AF92BF92CF92DF92EF92FF926D
:100BC0000F931F93CF93DF93CDB7DEB7CA1BDB0B19
:100BD0000FB6F894DEBF0FBECDBF09942A883988BE
:100BE00048885F846E847D848C849B84AA84B984C5
:100BF000C884DF80EE80FD800C811B81AA81B981D1
:100C0000CE0FD11D0FB6F894DEBF0FBECDBFED01E4
:060C10000895F894FFCFE7
:100C1600C001CA01C401D00100401454312E204144
:100C260075746F204D6F646500322E204D616E75B0
:100C3600616C204D6F64650050726F6365737369F4
:100C46006E67004175746F204D6F64652E2E2E0001
:100C560053656C65637420746865005065726365DE
:100C66006E74616765732E2E0045786365656465ED
:100C76006420313030250053656C656374206167EC
:100C860061696E002564252500596F7572206F72A3
:100C9600646572206973006F6E20746865207761E1
:100CA6007900456E6A6F7900596F757220647269B2
:100CB6006E6B00546F74616C2073686F756C642082
:100CC6006E6F740065786365656420313030250089
:100CD60050494E454150504C45004D414E474F00FE
:080CE6004F52414E474500004A
:00000001FF
