:100000000C9434000C9451000C9451000C94510049
:100010000C9451000C9451000C9451000C9451001C
:100020000C9451000C9451000C9451000C9451000C
:100030000C9451000C9451000C9451000C945100FC
:100040000C9451000C9451000C9451000C945100EC
:100050000C9451000C9451000C9451000C945100DC
:100060000C9451000C94510011241FBECFEFD8E026
:10007000DEBFCDBF11E0A0E0B1E0EEECFAE002C0DF
:1000800005900D92A43CB107D9F721E0A4ECB1E0B2
:1000900001C01D92AC3CB207E1F70E949D010C9497
:1000A00065050C9400001092B90086E48093B800B6
:1000B00084E08093BC00089584EA8093BC00809122
:1000C000BC0087FFFCCF089584E98093BC0081E2E7
:1000D0008A95F1F7000008958093BB0084E880932F
:1000E000BC008091BC0087FFFCCF9091B900987F45
:1000F000983219F081E0983109F480E00895CF93A7
:10010000C82F84600E946C0000008C2F8B7F0E949F
:100110006C0083EF91E00197F1F700C00000CF91F0
:100120000895CF93C82F0E945C008EE40E946C005B
:100130008C2F807F88600E947F0020E1C29FC001D9
:10014000112488600E947F00CF910C946400CF93AB
:10015000C82F0E945C008EE40E946C008C2F807F70
:1001600089600E947F0020E1C29FC0011124896044
:100170000E947F00CF910C9464000E94530087E896
:1001800093E10197F1F700C0000082E00E94910026
:1001900088E20E9491008CE00E94910086E00E941B
:1001A000910081E00E94910083EF91E00197F1F7C7
:1001B00000C000000895CF93DF93EC01899188235C
:1001C00019F00E94A700FACFDF91CF91089581E046
:1001D0000E94910083EF91E00197F1F700C00000C9
:1001E00008953898409A3998419A219822982398EE
:1001F00085B18E6085B9089586B180958170089526
:1002000086B18695817091E08927089583B183FB3B
:10021000882780F991E0892708950E94E70088E007
:1002200091E00E94DB0080EC0E94910085E191E06A
:100230000C94DB000E94E70084E291E00E94DB0066
:1002400080EC0E9491008FE291E00C94DB000E9410
:10025000E7008CE391E00E94DB0080EC0E949100BB
:1002600087E491E00C94DB00EF92FF920F931F93D1
:10027000CF93DF93CDB7DEB760970FB6F894DEBFAC
:100280000FBECDBF7C01162F0E94E700C7010E9460
:10029000DB0080EC0E9491001F921F9386E591E0A5
:1002A0009F938F931F9280E18F938E010F5F1F4F5B
:1002B0001F930F930E946D02C8010E94DB000FB6CE
:1002C000F894DEBF0FBECDBF60960FB6F894DEBFC8
:1002D0000FBECDBFDF91CF911F910F91FF90EF9097
:1002E00008950E94E7008BE591E00E94DB0080EC1E
:1002F0000E94910089E691E00C94DB000E94E700E7
:1003000086E791E00E94DB0080EC0E94910084E887
:1003100091E00C94DB0083B182709091CB0189173E
:1003200051F01A9B04C08093CB0181E00895809323
:10033000CB018FEF089580E008950E94F1000E94A4
:10034000BD000E940D0110E000E0D1E00E94FC0021
:10035000C82F8823D9F1011139C00E941A012FEF4B
:1003600084E39CE0215080409040E1F700C0000011
:100370000E9427012FEF84E39CE0215080409040B1
:10038000E1F700C000000E94E7008FE891E00E94C2
:10039000DB0080EC0E94910080EA91E00E94DB008B
:1003A0002FEF84E39CE0215080409040E1F700C0B3
:1003B00000001092CA011092C501D093C40160E000
:1003C00080910001909101010E9434018091C4014B
:1003D000882309F478C00E948B01181694F4609168
:1003E000C501643670F46C5E6093C501E091CA018A
:1003F000F0E0EE0FFF1FE050FF4F808191810E94DF
:1004000034010E940001882391F06091C5016623A8
:1004100071F064516093C501E091CA01F0E0EE0F04
:10042000FF1FE050FF4F808191810E9434010E94A4
:100430000601082F882309F447C0111145C0E09137
:10044000CA01AE2FB0E0AA53BE4F8091C5018C9374
:10045000EF5FE093CA01E43058F41092C501F0E078
:10046000EE0FFF1FE050FF4F60E08081918125C0BB
:100470001092C4019091C6018091C701890F90919B
:10048000C801890F9091C901890F8536C8F00E9473
:1004900071012FEB87E299E0215080409040E1F715
:1004A00000C000001092CA011092C501D093C4018F
:1004B00060E080910001909101010E94340104C02C
:1004C0000E947E01FFCF012F83ED90E30197F1F7AA
:1004D00000C00000102F0C2F39CFAEE0B0E0E3E7F2
:1004E000F2E00C943C050D891E898F89988D26E0D9
:1004F0002C831A83098397FF02C080E090E801975C
:100500009E838D83AE01455E5F4F698D7A8DCE01EE
:1005100001960E949D024D815E8157FD0AC02F8188
:100520003885421753070CF49A01F801E20FF31FC4
:1005300010822E96E4E00C945805ABE0B0E0E3EABC
:10054000F2E00C942E056C017B018A01FC011782FC
:100550001682838181FFCCC1CE0101963C01F60158
:100560009381F70193FD859193FF81917F0188230A
:1005700009F4BAC1853239F493FD859193FF8191D5
:100580007F01853229F4B60190E00E949404E7CF00
:10059000912C212C312CFFE1F315D8F08B3279F01E
:1005A00038F4803279F08332A1F4232D20611DC00C
:1005B0008D3261F0803369F4232D216016C0832DC4
:1005C0008260382EE32DE4603E2E2AC0F32DF860C1
:1005D0001DC037FC2DC020ED280F2A3040F08E3290
:1005E000B9F436FC81C1232D2064322E19C036FEA9
:1005F00006C08AE0989E200D1124922E11C0EAE0D8
:100600002E9E200D1124222EF32DF0623F2E08C0C5
:100610008C3621F4832D8068382E02C0883641F450
:10062000F70193FD859193FF81917F018111B3CFF4
:10063000982F9F7D9554933028F40C5F1F4F9FE3B4
:1006400099830DC0833631F0833771F0833509F01B
:1006500059C021C0F801808189830E5F1F4F882413
:100660008394912C530113C02801F2E04F0E511CCA
:10067000F801A080B18036FE03C0692D70E002C091
:100680006FEF7FEFC5010E9489044C018201F32DB9
:10069000FF773F2E16C0280122E0420E511CF801C0
:1006A000A080B18036FE03C0692D70E002C06FEFFC
:1006B0007FEFC5010E947E044C01F32DF0683F2EB0
:1006C000820133FC1BC0822D90E088169906B0F49D
:1006D000B60180E290E00E9494042A94F4CFF501E0
:1006E00037FC859137FE81915F01B60190E00E9451
:1006F000940421102A9421E0821A91088114910413
:1007000071F7E8C0843611F0893641F5F80137FEFB
:1007100007C060817181828193810C5F1F4F08C087
:1007200060817181072E000C880B990B0E5F1F4FA3
:10073000F32DFF763F2E97FF09C090958095709519
:1007400061957F4F8F4F9F4FF0683F2E2AE030E03A
:10075000A3010E94D004882E861845C0853731F445
:10076000232D2F7EB22E2AE030E025C0932D997FD5
:10077000B92E8F36C1F018F4883579F0B5C08037BE
:1007800019F0883721F0B0C0E92FE061BE2EB4FE29
:100790000DC0FB2DF460BF2E09C034FE0AC0292F06
:1007A0002660B22E06C028E030E005C020E130E02F
:1007B00002C020E132E0F801B7FE07C0608171811C
:1007C000828193810C5F1F4F06C06081718180E040
:1007D00090E00E5F1F4FA3010E94D004882E861860
:1007E000FB2DFF773F2E36FE0DC0232D2E7FA22E30
:1007F000891458F434FE0BC032FC09C0832D8E7E60
:10080000A82E05C0B82CA32C03C0B82C01C0B92C4D
:10081000A4FE0FC0FE01E80DF11D8081803321F49C
:100820009A2D997EA92E09C0A2FE06C0B394B39456
:1008300004C08A2D867809F0B394A3FC11C0A0FEF1
:1008400006C0B21488F4280C922C9B180EC0B21467
:1008500060F4B60180E290E00E949404B394F7CF74
:10086000B21418F42B1802C0982C212CA4FE10C02E
:10087000B60180E390E00E949404A2FE17C0A1FCA0
:1008800003C088E790E002C088E590E0B6010CC0A4
:100890008A2D867859F0A1FE02C08BE201C080E269
:1008A000A7FC8DE2B60190E00E949404891438F40C
:1008B000B60180E390E00E9494049A94F7CF8A9462
:1008C000F301E80DF11D8081B60190E00E949404CF
:1008D0008110F5CF222009F442CEB60180E290E0EB
:1008E0000E9494042A94F6CFF6018681978102C073
:1008F0008FEF9FEF2B96E2E10C944A05FC010590E7
:10090000615070400110D8F7809590958E0F9F1F11
:100910000895FC016150704001900110D8F7809556
:1009200090958E0F9F1F08950F931F93CF93DF9382
:10093000FB01238121FD03C08FEF9FEF2CC022FF1D
:1009400016C046815781248135814217530744F4EC
:10095000A081B1819D012F5F3F4F318320838C9314
:10096000268137812F5F3F4F3783268314C08B0149
:10097000EC01FB010084F185E02D0995892BE1F65E
:10098000D80116968D919C911797019617969C9376
:100990008E931697CE01DF91CF911F910F910895FD
:1009A000FA01AA27283051F1203181F1E8946F93A0
:1009B0006E7F6E5F7F4F8F4F9F4FAF4FB1E03ED046
:1009C000B4E03CD0670F781F891F9A1FA11D680FE4
:1009D000791F8A1F911DA11D6A0F711D811D911D17
:1009E000A11D20D009F468943F912AE0269F11248C
:1009F0003019305D3193DEF6CF010895462F4770F0
:100A0000405D4193B3E00FD0C9F7F6CF462F4F704A
:100A1000405D4A3318F0495D31FD4052419302D0A8
:100A2000A9F7EACFB4E0A69597958795779567954E
:100A3000BA95C9F700976105710508959B01AC014E
:100A40000A2E06945795479537952795BA95C9F775
:100A5000620F731F841F951FA01D08952F923F9250
:100A60004F925F926F927F928F929F92AF92BF92BE
:100A7000CF92DF92EF92FF920F931F93CF93DF936A
:100A8000CDB7DEB7CA1BDB0B0FB6F894DEBF0FBEC7
:100A9000CDBF09942A88398848885F846E847D8414
:100AA0008C849B84AA84B984C884DF80EE80FD8016
:100AB0000C811B81AA81B981CE0FD11D0FB6F8948C
:0E0AC000DEBF0FBECDBFED010895F894FFCF4D
:100ACE00AC01B601B001BC01312E204175746F200E
:100ADE004D6F646500322E204D616E75616C204D38
:100AEE006F64650050726F63657373696E67004162
:100AFE0075746F204D6F64652E2E2E0053656C65D8
:100B0E006374207468650050657263656E74616706
:100B1E0065732E2E2E0025642525004578636565A8
:100B2E0064656420313030250053656C6563742034
:100B3E00416761696E00596F7572206F72646572DC
:100B4E00206973006F6E2074686520776179005498
:100B5E006F74616C2073686F756C64206E6F7400B7
:100B6E0065786365656420313030250050494E4507
:100B7E004150504C45004D414E474F004F52414E53
:040B8E0047450000D7
:00000001FF
