:100000000C9434000C94AB010C9451000C94DD0161
:100010000C9451000C9451000C9451000C9451001C
:100020000C9451000C9451000C9451000C9451000C
:100030000C9451000C9451000C9451000C945100FC
:100040000C9451000C9451000C9451000C945100EC
:100050000C9451000C9451000C9451000C945100DC
:100060000C9451000C94510011241FBECFEFD8E026
:10007000DEBFCDBF11E0A0E0B1E0E0E1FAE002C0F8
:1000800005900D92AA31B107D9F721E0AAE1B1E0BC
:1000900001C01D92AE31B207E1F70E9402020C943A
:1000A00006050C9400001092B90086E48093B80015
:1000B00084E08093BC00089584EA8093BC00809122
:1000C000BC0087FFFCCF089584E98093BC008FE8D3
:1000D00091E00197F1F700C0000008958093BB0004
:1000E00084E88093BC008091BC0087FFFCCF909196
:1000F000B900987F983219F081E0983109F480E0D6
:100100000895CF93C82F84600E946E0085E08A9581
:10011000F1F700008C2F8B7F0E946E008FE39FE130
:100120000197F1F700C00000CF910895CF93C82F39
:100130000E945C008EE40E946E008C2F807F88609D
:100140000E94810020E1C29FC001112488600E94AA
:100150008100CF910C946400CF93C82F0E945C0063
:100160008EE40E946E008C2F807F89600E94810047
:1001700020E1C29FC001112489600E948100CF91BB
:100180000C9464000E9453002FEF89EF90E02150FF
:1001900080409040E1F700C0000082E00E9496009D
:1001A00088E20E9496008CE00E94960086E00E9401
:1001B000960081E00E9496008FE39FE10197F1F79E
:1001C00000C000000895811102C080E801C080ECE9
:1001D000860F0C949600CF93DF93EC0189918823CE
:1001E00019F00E94AC00FACFDF91CF91089581E021
:1001F0000E9496008FE39FE10197F1F700C0000095
:10020000089584B1817F84B985B18E6085B93898AD
:10021000409AE9E6F0E0808181608083E89AE8E630
:10022000F0E0808181608083EBE6F0E08081846093
:10023000808308950F931F93CF93DF9300D000D056
:100240001F92CDB7DEB79F938F9388E091E09F9385
:100250008F931F9285E08F938E010F5F1F4F1F9327
:100260000F930E940E0280EC0E9496008DE091E0B8
:100270000E94EB0080EC0E949600C8010E94EB00F7
:100280000FB6F894DEBF0FBECDBF0F900F900F904A
:100290000F900F90DF91CF911F910F910895199BAF
:1002A00003C01B9903C008C01B9906C080911C01A4
:1002B00090911D01019705C080911C0190911D0135
:1002C000019690931D0180931C0180911C019091D7
:1002D0001D0106973CF085E090E090931D0180930E
:1002E0001C010AC080911C0190911D0197FF04C060
:1002F00010921D0110921C0180911C0190911D0112
:1003000082309105B1F03CF4009771F00197E9F467
:1003100084E190E016C08430910589F06CF0059777
:10032000A1F484E690E00DC010921B0110921A0116
:100330000CC088E290E005C08CE390E002C080E54C
:1003400090E090931B0180931A0180911A01909183
:100350001B010C941A011F920F920FB60F921124D9
:100360002F933F934F935F936F937F938F939F93BD
:10037000AF93BF93EF93FF930E944F01FF91EF91D3
:10038000BF91AF919F918F917F916F915F914F91AD
:100390003F912F910F900FBE0F901F9018951092C4
:1003A0001D0110921C0110921B0110921A018091E4
:1003B0001A0190911B010C941A011F920F920FB613
:1003C0000F9211242F933F934F935F936F937F93DB
:1003D0008F939F93AF93BF93EF93FF931A9B0E94CA
:1003E000CF01FF91EF91BF91AF919F918F917F913D
:1003F0006F915F914F913F912F910F900FBE0F9092
:100400001F9018950E9401010E94C2000E94F700EF
:1004100080E091E00E94EB007894FFCFAEE0B0E086
:10042000E4E1F2E00C94DD040D891E898F89988D3A
:1004300026E02C831A83098397FF02C080E090E8AE
:1004400001979E838D83AE01455E5F4F698D7A8DE6
:10045000CE0101960E943E024D815E8157FD0AC089
:100460002F813885421753070CF49A01F801E20FE7
:10047000F31F10822E96E4E00C94F904ABE0B0E098
:10048000E4E4F2E00C94CF046C017B018A01FC01EE
:1004900017821682838181FFCCC1CE0101963C0177
:1004A000F6019381F70193FD859193FF81917F017F
:1004B000882309F4BAC1853239F493FD859193FFFD
:1004C00081917F01853229F4B60190E00E943504C4
:1004D000E7CF912C212C312CFFE1F315D8F08B3292
:1004E00079F038F4803279F08332A1F4232D206141
:1004F0001DC08D3261F0803369F4232D216016C058
:10050000832D8260382EE32DE4603E2E2AC0F32D29
:10051000F8601DC037FC2DC020ED280F2A3040F0B8
:100520008E32B9F436FC81C1232D2064322E19C0DD
:1005300036FE06C08AE0989E200D1124922E11C02E
:10054000EAE02E9E200D1124222EF32DF0623F2E84
:1005500008C08C3621F4832D8068382E02C088367E
:1005600041F4F70193FD859193FF81917F01811102
:10057000B3CF982F9F7D9554933028F40C5F1F4F75
:100580009FE399830DC0833631F0833771F0833553
:1005900009F059C021C0F801808189830E5F1F4F87
:1005A00088248394912C530113C02801F2E04F0E4C
:1005B000511CF801A080B18036FE03C0692D70E0A7
:1005C00002C06FEF7FEFC5010E942A044C01820137
:1005D000F32DFF773F2E16C0280122E0420E511C5A
:1005E000F801A080B18036FE03C0692D70E002C022
:1005F0006FEF7FEFC5010E941F044C01F32DF068DF
:100600003F2E820133FC1BC0822D90E08816990694
:10061000B0F4B60180E290E00E9435042A94F4CF51
:10062000F50137FC859137FE81915F01B60190E0BD
:100630000E94350421102A9421E0821A9108811425
:10064000910471F7E8C0843611F0893641F5F8015C
:1006500037FE07C060817181828193810C5F1F4FDB
:1006600008C060817181072E000C880B990B0E5F0A
:100670001F4FF32DFF763F2E97FF09C09095809571
:10068000709561957F4F8F4F9F4FF0683F2E2AE006
:1006900030E0A3010E947104882E861845C085377A
:1006A00031F4232D2F7EB22E2AE030E025C0932D89
:1006B000997FB92E8F36C1F018F4883579F0B5C01E
:1006C000803719F0883721F0B0C0E92FE061BE2EE5
:1006D000B4FE0DC0FB2DF460BF2E09C034FE0AC06D
:1006E000292F2660B22E06C028E030E005C020E1A8
:1006F00030E002C020E132E0F801B7FE07C06081BF
:100700007181828193810C5F1F4F06C0608171816E
:1007100080E090E00E5F1F4FA3010E947104882EBD
:100720008618FB2DFF773F2E36FE0DC0232D2E7F22
:10073000A22E891458F434FE0BC032FC09C0832D5C
:100740008E7EA82E05C0B82CA32C03C0B82C01C0E7
:10075000B92CA4FE0FC0FE01E80DF11D808180338D
:1007600021F49A2D997EA92E09C0A2FE06C0B39449
:10077000B39404C08A2D867809F0B394A3FC11C009
:10078000A0FE06C0B21488F4280C922C9B180EC050
:10079000B21460F4B60180E290E00E943504B39494
:1007A000F7CFB21418F42B1802C0982C212CA4FEF9
:1007B00010C0B60180E390E00E943504A2FE17C08D
:1007C000A1FC03C088E790E002C088E590E0B60194
:1007D0000CC08A2D867859F0A1FE02C08BE201C0C0
:1007E00080E2A7FC8DE2B60190E00E9435048914F6
:1007F00038F4B60180E390E00E9435049A94F7CF74
:100800008A94F301E80DF11D8081B60190E00E9409
:1008100035048110F5CF222009F442CEB60180E2E2
:1008200090E00E9435042A94F6CFF60186819781E4
:1008300002C08FEF9FEF2B96E2E10C94EB04FC01DA
:100840000590615070400110D8F7809590958E0FFB
:100850009F1F0895FC016150704001900110D8F76E
:10086000809590958E0F9F1F08950F931F93CF93A0
:10087000DF93FB01238121FD03C08FEF9FEF2CC08D
:1008800022FF16C0468157812481358142175307C4
:1008900044F4A081B1819D012F5F3F4F31832083BC
:1008A0008C93268137812F5F3F4F3783268314C077
:1008B0008B01EC01FB010084F185E02D0995892B6A
:1008C000E1F6D80116968D919C911797019617968F
:1008D0009C938E931697CE01DF91CF911F910F912C
:1008E0000895FA01AA27283051F1203181F1E894C6
:1008F0006F936E7F6E5F7F4F8F4F9F4FAF4FB1E013
:100900003ED0B4E03CD0670F781F891F9A1FA11D0D
:10091000680F791F8A1F911DA11D6A0F711D811D0E
:10092000911DA11D20D009F468943F912AE0269FD3
:1009300011243019305D3193DEF6CF010895462F32
:100940004770405D4193B3E00FD0C9F7F6CF462F13
:100950004F70405D4A3318F0495D31FD405241937C
:1009600002D0A9F7EACFB4E0A69597958795779539
:100970006795BA95C9F700976105710508959B01C0
:10098000AC010A2E06945795479537952795BA9549
:10099000C9F7620F731F841F951FA01D08952F9222
:1009A0003F924F925F926F927F928F929F92AF92FF
:1009B000BF92CF92DF92EF92FF920F931F93CF934C
:1009C000DF93CDB7DEB7CA1BDB0B0FB6F894DEBFE3
:1009D0000FBECDBF09942A88398848885F846E8409
:1009E0007D848C849B84AA84B984C884DF80EE8053
:1009F000FD800C811B81AA81B981CE0FD11D0FB65C
:100A0000F894DEBF0FBECDBFED010895F894FFCF7F
:100A100056616C75653A200025642525002020204C
:0A0A200020202020202020202000AC
:00000001FF
